:020000040800F2
:1000000000040020470100085501000857010008BE
:10001000590100085B0100085D01000800000000B4
:100020000000000000000000000000005F01000868
:10003000610100080000000063010008650100087C
:1000400067010008670100086701000867010008F0
:1000500067010008670100086701000867010008E0
:1000600067010008670100086701000867010008D0
:10007000670100086701000899010008670100088E
:1000800067010008670100086701000867010008B0
:1000900067010008670100086701000867010008A0
:1000A0006701000867010008670100086701000890
:1000B0006701000867010008670100086701000880
:1000C0006701000867010008670100086701000870
:1000D0006701000867010008670100086701000860
:1000E0006701000867010008670100086701000850
:1000F0006701000867010008670100086701000840
:10010000670100086701000867010008670100082F
:10011000670100086701000867010008670100081F
:10012000670100086701000867010008670100080F
:10013000DFF80CD000F01EF800480047CD0600089C
:10014000183E0020704708488047084981F3088816
:1001500007480047FEE7FEE7FEE7FEE7FEE7FEE7AB
:10016000FEE7FEE7FEE7FEE745010008183E002037
:1001700031010008064C074D06E0E06840F001033D
:1001800094E8070098471034AC42F6D3FFF7D4FF49
:10019000280900084809000810B54FF4005420460B
:1001A00000F02EF801280ED1074988700021074879
:1001B00000F01CF86110064800F0D8F82046BDE8B1
:1001C000104000F007B810BD0000002044000240BD
:1001D000000C0140C10002D5024908607047024985
:1001E0004860704704040240000002400029016892
:1001F00002D041F0010101E021F0010101607047EE
:1002000001460020CA0001D5034A00E0034A1268F3
:100210000A4200D001207047000402400000024062
:10022000002A026801D00A4300E08A430260704756
:1002300030B5036847F6F07293430C6A8A6822432C
:10024000D1E904452C4322438C692243CC692243E3
:100250004C6A22438C6A22431A430260CA68426095
:100260000A6882604968C16030BD01B5009801E04C
:10027000401E00900028FBD108BD0000F0B5CA78F0
:10028000002502F00F03D20601D58A7813430A78BD
:100290004FF00F0E12F0FF0F4FF001021CD0046858
:1002A0000F8802FA05F63740B74211D14FEA850CA4
:1002B0000EFA0CF724EA070703FA0CF43C43CF7854
:1002C000282F02D0482F02D002E0466100E00661EC
:1002D0006D1C082DE4D304600C88FF2C1ED94468E3
:1002E0005FF0000606F1080702FA07F50F882F40B5
:1002F000AF420FD14FEA860C0EFA0CF7BC4303FA5B
:100300000CF73C43CF78282F00D14561CF78482F98
:1003100000D10561761C082EE4D34460F0BD0000D6
:10032000F0B5104D6A68440D260184B2C0F3015740
:10033000B440C0F30343032F05D0C0020AD5032005
:100340009840824307E0686822F0706320F0706094
:10035000686002E0A24342F0706301B123436B6026
:10036000F0BD00000000014041617047016170472D
:10037000C1607047044A0029516901D0014300E07F
:10038000814351617047000000100240044A002977
:10039000D16901D0014300E08143D1617047000081
:1003A00000100240044A0029916901D0014300E095
:1003B00081439161704700000010024000290188CC
:1003C00002D041F0400101E021F04001018070477E
:1003D000002A828801D00A4300E08A438280704765
:1003E000090901238B40002A828899B201D00A436F
:1003F00000E08A438280704730B502884C8802F45E
:1004000041530A88CD8822438C882C4322430C898F
:1004100022434C8922438C892243CC8922431A43AC
:100420000280828B22F400628283098A018230BDBD
:1004300010B586B001213D20FFF7B4FF01212B4804
:10044000FFF76EFFFF20ADF8000003208DF80200DB
:1004500010208DF8030069462548FFF70FFF254C53
:1004600069462046FFF70AFF69462348FFF706FF63
:1004700069462248FFF702FFA014ADF80000694664
:100480002046FFF7FBFE01218803FFF77FFF4FF4B3
:100490002040ADF8000028208DF803006946204672
:1004A000FFF7ECFE2015ADF804000020ADF80800C1
:1004B0000221ADF80A100121ADF80C10ADF81000C2
:1004C0000F4CADF80E00ADF81200ADF8060001A912
:1004D0002046FFF791FF012260212046FFF780FFB1
:1004E00001212046FFF76AFF06B010BD0001300071
:1004F00000080140000C01400010014000140140C0
:10050000003800400CB50021264801910091026896
:1005100042F4803202604FF4A063026802F40032B9
:100520000092019A521C0192009A12B9019A9A42C1
:10053000F3D10268920333D5012100911A490A6868
:1005400042F010020A600A6822F003020A600A6898
:1005500042F002020A6041684160416841604168BE
:1005600041F480614160416821F47C11416041683F
:1005700041F4E8114160016841F080710160016857
:100580008901FCD5416821F003014160416841F0D7
:10059000020141604168C1F381010229FAD10CBD19
:1005A0000091FEE700100240002002400C48016864
:1005B00041F00101016041680A4A1140416001684F
:1005C000094A11400160016821F4802101604168FD
:1005D00021F4FE01416000218160FFF793BF00001C
:1005E000001002400000FFF8FFFFF6FE02E008C81E
:1005F000121F08C1002AFAD170477047002001E09D
:1006000001C1121F002AFBD17047000070B5002500
:10061000012302EB810183400F4ADEB22C4600BF6A
:10062000C4EB041301EB431313441B793340C34061
:10063000A3402B43641CA4B21D46202CF0D30749D1
:10064000D843C2B20A81C0F30722CA80020C0A70E2
:10065000000E487070BD00000C000020000000205B
:1006600010B501218CB00846FFF784FE14480090B5
:1006700014480190002043F60541CDE902010A909B
:1006800080210790CDE904010890069048010E4CA6
:10069000099069462046FFF7CBFD09480122114623
:1006A0000C38FFF795FE012202212046FFF7B8FD26
:1006B0004FF0E0214FF48040C1F800010CB010BDB4
:1006C0000C3800400C00002044000240FFF76EFF91
:1006D000FFF7AEFEFF212648FFF74AFE254DFF211A
:1006E0002846FFF745FEFF212348FFF741FEFF2183
:1006F0002248FFF73DFE1E20FFF7B7FD0024641CD3
:10070000E0B2002100F040F8A4B2202CF7D31C4C3A
:100710000026A670FFF7A4FF1A4F01213846FFF705
:1007200065FD4FF4805841462846FFF71DFEB94647
:10073000A680AA464FEA080700F0BEF8A078012874
:10074000FAD10125E8B2394600F01EF86D1CADB2B1
:10075000782DF7D9A670FFF783FF01214846FFF7F0
:1007600045FD39465046FFF7FFFDA670E4E700005F
:1007700000080140000C014000100140001401403D
:1007800000000020440002402DE9F84F4449454F45
:10079000DFF814814979DFF8149101F01F01DFF8C7
:1007A00010A1444D0226A0F1010B00915FF000045E
:1007B00000980BF0FF012044C0B23246FFF726FF3D
:1007C00000213846FFF7D4FD00214046FFF7D0FD59
:1007D00000214846FFF7CCFD00215046FFF7C8FD39
:1007E0002420FFF742FD29893846FFF7C1FDE9883B
:1007F0004046FFF7BDFD29784846FFF7B9FD697807
:100800005046FFF7B5FD2420FFF72FFDFF213846A6
:10081000FFF7AEFDFF214046FFF7AAFDFF21484646
:10082000FFF7A6FDFF215046FFF7A2FD1620FFF7B8
:100830001CFD641CE4B2082CBAD3761CF6B2052E5B
:10084000B4D32420FFF711FD00213846FFF790FDB7
:10085000002144464046FFF78BFD00214D464846A7
:10086000FFF786FD002156465046FFF781FDB42074
:10087000FFF7FBFCFF213846FFF77AFDFF212046FA
:10088000FFF776FDFF212846FFF772FDFF21304676
:10089000FFF76EFDBDE8F84FDC20FFF7E6BC000077
:1008A0000C00002000080140000C01400010014035
:1008B00000140140000000202DE9F041164C0021F9
:1008C0002046FFF755FD154D00212846FFF750FD46
:1008D000134E00213046FFF74BFD124F00213846E2
:1008E000FFF746FDB420FFF7C0FCFF212046FFF7CD
:1008F0003FFDFF212846FFF73BFDFF213046FFF774
:1009000037FDFF213846FFF733FDBDE8F0414FF4D6
:100910008C70FFF7AABC000000080140000C0140E9
:1009200000100140001401404809000800000020A8
:100930000C000000EC050008540900080C00002021
:100940000C3E0000FC050008000000000000000054
:0409500000000000A3
:0400000508000131BD
:00000001FF
