:020000040800F2
:1000000000040020470100085501000857010008BE
:10001000590100085B0100085D01000800000000B4
:100020000000000000000000000000005F01000868
:10003000610100080000000063010008650100087C
:1000400067010008670100086701000867010008F0
:1000500067010008670100086701000867010008E0
:1000600067010008670100086701000867010008D0
:10007000670100086701000899010008670100088E
:1000800067010008670100086701000867010008B0
:1000900067010008670100086701000867010008A0
:1000A0006701000867010008670100086701000890
:1000B0006701000867010008670100086701000880
:1000C0006701000867010008670100086701000870
:1000D0006701000867010008670100086701000860
:1000E0006701000867010008670100086701000850
:1000F0006701000867010008670100086701000840
:10010000670100086701000867010008670100082F
:10011000670100086701000867010008670100081F
:10012000670100086701000867010008670100080F
:10013000DFF80CD000F01EF800480047B5070008B3
:1001400010350020704708488047084981F3088827
:1001500007480047FEE7FEE7FEE7FEE7FEE7FEE7AB
:10016000FEE7FEE7FEE7FEE7450100081035002048
:1001700031010008064C074D06E0E06840F001033D
:1001800094E8070098471034AC42F6D3FFF7D4FF49
:100190007C0B00089C0B000810B54FF4005420465F
:1001A00000F02EF801280ED10749487000210748B9
:1001B00000F01CF86110064800F0D8F82046BDE8B1
:1001C000104000F007B810BD0000002044000240BD
:1001D000000C0140C10002D5024908607047024985
:1001E0004860704704040240000002400029016892
:1001F00002D041F0010101E021F0010101607047EE
:1002000001460020CA0001D5034A00E0034A1268F3
:100210000A4200D001207047000402400000024062
:10022000002A026801D00A4300E08A430260704756
:1002300030B5036847F6F07293430C6A8A6822432C
:10024000D1E904452C4322438C692243CC692243E3
:100250004C6A22438C6A22431A430260CA68426095
:100260000A6882604968C16030BD01B5009801E04C
:10027000401E00900028FBD108BD0000F0B5CA78F0
:10028000002502F00F03D20601D58A7813430A78BD
:100290004FF00F0E12F0FF0F4FF001021CD0046858
:1002A0000F8802FA05F63740B74211D14FEA850CA4
:1002B0000EFA0CF724EA070703FA0CF43C43CF7854
:1002C000282F02D0482F02D002E0466100E00661EC
:1002D0006D1C082DE4D304600C88FF2C1ED94468E3
:1002E0005FF0000606F1080702FA07F50F882F40B5
:1002F000AF420FD14FEA860C0EFA0CF7BC4303FA5B
:100300000CF73C43CF78282F00D14561CF78482F98
:1003100000D10561761C082EE4D34460F0BD0000D6
:10032000F0B5104D6A68440D260184B2C0F3015740
:10033000B440C0F30343032F05D0C0020AD5032005
:100340009840824307E0686822F0706320F0706094
:10035000686002E0A24342F0706301B123436B6026
:10036000F0BD00000000014041617047016170472D
:10037000C1607047044A0029516901D0014300E07F
:10038000814351617047000000100240044A002977
:10039000D16901D0014300E08143D1617047000081
:1003A00000100240044A0029916901D0014300E095
:1003B00081439161704700000010024000290188CC
:1003C00002D041F0400101E021F04001018070477E
:1003D000002A828801D00A4300E08A438280704765
:1003E000090901238B40002A828899B201D00A436F
:1003F00000E08A438280704730B502884C8802F45E
:1004000041530A88CD8822438C882C4322430C898F
:1004100022434C8922438C892243CC8922431A43AC
:100420000280828B22F400628283098A018230BDBD
:1004300070B586B001211C20FFF7B4FF01210846EA
:10044000FFF7B0FF01213948FFF76AFF0121384863
:10045000FFF766FF01213748FFF762FF40F2FB40DC
:10046000ADF800000324344E8DF8024010258DF8BD
:10047000035069463046FFF701FF2802ADF800003F
:100480008DF802408DF8035069463046FFF7F6FEBE
:1004900041F6FF50ADF800008DF802408DF8035092
:1004A00069462648FFF7EAFE4DF6F710ADF8000062
:1004B0008DF802408DF8035069462148FFF7DEFEB3
:1004C00001218803FFF762FF4FF42040ADF80000E0
:1004D0008DF8024028208DF8030069463046FFF76A
:1004E000CDFEA801ADF804000020ADF808000221FF
:1004F000ADF80A100121ADF80C10ADF81000114C48
:10050000ADF80E00ADF81200ADF8060001A92046C6
:10051000FFF772FF012260212046FFF761FF0121F2
:100520002046FFF74BFF06B070BD00000001300011
:100530000002300000043000000C014000100140B7
:1005400000080140003800400CB500212648019108
:100550000091026842F4803202604FF4A0630268A6
:1005600002F400320092019A521C0192009A12B9D0
:10057000019A9A42F3D10268920333D50121009186
:100580001A490A6842F010020A600A6822F003025F
:100590000A600A6842F002020A60416841604168EC
:1005A0004160416841F480614160416821F47C11FF
:1005B0004160416841F4E8114160016841F0807197
:1005C000016001688901FCD5416821F003014160A7
:1005D000416841F0020141604168C1F38101022993
:1005E000FAD10CBD0091FEE700100240002002404D
:1005F0000C48016841F00101016041680A4A11405C
:1006000041600168094A11400160016821F48021BC
:100610000160416821F4FE01416000218160FFF723
:1006200093BF0000001002400000FFF8FFFFF6FE3D
:1006300002E008C8121F08C1002AFAD170477047AB
:10064000002001E001C1121F002AFBD17047000009
:10065000F0B586B002EB8104394B00204FEA0D0261
:1006600000EB400104EBC1111944097922F8101084
:10067000401C80B20C28F3D3324800252946C5809F
:1006800000F1080732F8116017F811C006FA0CF6ED
:10069000B0F806C0491C46EA0C0689B2C6800C298F
:1006A000F0D3B1B2C943C1805FF00C0101EB410648
:1006B00004EBC61602EB41071E44491C367989B289
:1006C00027F8186C1429F1D31E4F0021858020379C
:1006D00032F8116017F811C006FA0CF6B0F804C031
:1006E000491C46EA0C0689B286800829F0D3B1B2CB
:1006F000C94381805FF0140101EB410604EBC6168B
:1007000002EB41071E44491C367989B227F8286C50
:100710002029F1D30B4C00210570303412F8113030
:1007200014F81150AB400578491C2B4389B2037073
:100730000C29F3D3D9B2C943017006B0F0BD000053
:10074000480000200000002010B501218CB00846B0
:10075000FFF710FE1448009014480190002043F267
:100760000501CDE902010A9080210790CDE904013D
:100770000890069048010E4C099069462046FFF704
:1007800057FD0948012211460C38FFF721FE0122CE
:1007900002212046FFF744FD4FF0E0214FF4804056
:1007A000C1F800010CB010BD0C380040480000201A
:1007B00044000240FFF71CFFFFF73AFE40F2FF1132
:1007C0002448FFF7D5FDFF212348FFF7D1FD234C37
:1007D000FF212046FFF7CCFD1E20FFF746FD002538
:1007E0006D1CE8B2002100F03FF8ADB2FF2DF7D349
:1007F0001B4D00266E70FFF7A7FF1A4F01213846E8
:10080000FFF7F4FC4FF4805841462046FFF7ACFD5B
:100810006E80B9466E70A2464FEA080700F082F972
:1008200068780128FAD10124E0B2394600F01CF8BA
:10083000641CA4B2602CF7D96E70FFF785FF01210C
:100840004846FFF7D3FC39465046FFF78DFD6E70E2
:10085000E4E700000008014000100140000C0140E6
:1008600000000020440002402DE9FC5F8046A848BB
:100870004FF6FF74FF274079012600F01F0001901A
:10088000DFF890A241EA04008B4600250090DFF8D3
:10089000889200214846FFF76BFD00219F48FFF733
:1008A00067FD59465046FFF763FD2420FFF7DDFC46
:1008B00037420CD121464846FFF75AFD214697485A
:1008C000FFF756FD50460099FFF752FD0EE000215C
:1008D0004846FFF74DFD00219048FFF749FD594676
:1008E0005046FFF745FD2420FFF7BFFC7006060EBB
:1008F00021468948FFF73CFDDFF820922146484613
:10090000FFF736FD50460099FFF732FD1620FFF73E
:10091000ACFC6D1CEDB2022DB9D301267E4F002533
:1009200000213846FFF724FD00214846FFF720FD4F
:1009300059465046FFF71CFD2420FFF796FC18EAA5
:10094000060F0CD121463846FFF712FD21464846D6
:10095000FFF70EFD50460099FFF70AFD0EE000215B
:100960003846FFF705FD00214846FFF701FD5946CF
:100970005046FFF7FDFC2420FFF777FC7006060EBB
:1009800021466548FFF7F4FC21464846FFF7F0FC96
:1009900050460099FFF7ECFC1620FFF766FC6D1C33
:1009A000EDB2082DBCD3002701263D4600215A4850
:1009B000FFF7DEFC00214846FFF7DAFC59465046B7
:1009C000FFF7D6FC2420FFF750FC37420CD121461C
:1009D0005148FFF7CDFC21464846FFF7C9FC504679
:1009E0000099FFF7C5FC0EE000214B48FFF7C0FC63
:1009F00000214846FFF7BCFC59465046FFF7B8FCBB
:100A00002420FFF732FC7006060E21464248FFF70D
:100A1000AFFC21464846FFF7ABFC50460099FFF774
:100A2000A7FC1620FFF721FC6D1C15F0FF05BDD0BB
:100A3000394ED1460225A8F1010ADFF8E0800024F2
:100A400001980AF0FF012044C0B22A46FFF700FED9
:100A500000213046FFF78CFC00214046FFF788FC60
:100A600059464846FFF784FC2420FFF7FEFB2C4F35
:100A70003046F988FFF77CFC39784046FFF778FC70
:100A8000B988484641EA0B01FFF772FC2420FFF7C2
:100A9000ECFB4FF6FF7739463046FFF769FC3946E5
:100AA0004046FFF765FC48460099FFF761FC1620B9
:100AB000FFF7DBFB641CE4B2082CC1D36D1CEDB264
:100AC000052DBAD32420FFF7D0FB00213046FFF7D5
:100AD0004FFC124C00212046FFF74AFC59464D4678
:100AE0004846FFF745FCB420FFF7BFFB39463046C8
:100AF000FFF73EFC39462046FFF73AFC28460099AE
:100B0000FFF736FCBDE8FC5FDC20FFF7AEBB000062
:100B100048000020000C0140000801400010014086
:100B20000000002070B5124C00212046FFF720FC89
:100B3000104D00212846FFF71BFC0F4E00213046C8
:100B4000FFF716FCB420FFF790FB40F2FF112046A0
:100B5000FFF70EFCFF212846FFF70AFCFF21304675
:100B6000FFF706FCBDE870404FF48C70FFF77DBBCB
:100B70000008014000100140000C01409C0B0008DF
:100B8000000000204800000030060008E40B0008C8
:100B900048000020C83400004006000800000000A3
:100BA0000000000000000100020004000500060033
:100BB000070008000B000C000E000F0000000100F1
:100BC000030004000500060007000A000000010001
:100BD00002000300040005000600070008000A00E8
:040BE0000B000C00FA
:0400000508000131BD
:00000001FF
