:020000040800F2
:1000000000040020470100085501000857010008BE
:10001000590100085B0100085D01000800000000B4
:100020000000000000000000000000005F01000868
:10003000610100080000000063010008650100087C
:1000400067010008670100086701000867010008F0
:1000500067010008670100086701000867010008E0
:1000600067010008670100086701000867010008D0
:10007000670100086701000899010008670100088E
:1000800067010008670100086701000867010008B0
:1000900067010008670100086701000867010008A0
:1000A0006701000867010008670100086701000890
:1000B0006701000867010008670100086701000880
:1000C0006701000867010008670100086701000870
:1000D0006701000867010008670100086701000860
:1000E0006701000867010008670100086701000850
:1000F0006701000867010008670100086701000840
:10010000670100086701000867010008670100082F
:10011000670100086701000867010008670100081F
:10012000670100086701000867010008670100080F
:10013000DFF80CD000F01EF800480047D90700088F
:1001400018350020704708488047084981F308881F
:1001500007480047FEE7FEE7FEE7FEE7FEE7FEE7AB
:10016000FEE7FEE7FEE7FEE7450100081835002040
:1001700031010008064C074D06E0E06840F001033D
:1001800094E8070098471034AC42F6D3FFF7D4FF49
:10019000A40B0008C40B000810B54FF4005420460F
:1001A00000F02EF801280ED10749087000210748F9
:1001B00000F01CF86110064800F0D8F82046BDE8B1
:1001C000104000F007B810BD0000002044000240BD
:1001D000000C0140C10002D5024908607047024985
:1001E0004860704704040240000002400029016892
:1001F00002D041F0010101E021F0010101607047EE
:1002000001460020CA0001D5034A00E0034A1268F3
:100210000A4200D001207047000402400000024062
:10022000002A026801D00A4300E08A430260704756
:1002300030B5036847F6F07293430C6A8A6822432C
:10024000D1E904452C4322438C692243CC692243E3
:100250004C6A22438C6A22431A430260CA68426095
:100260000A6882604968C16030BD01B5009801E04C
:10027000401E00900028FBD108BD0000F0B5CA78F0
:10028000002502F00F03D20601D58A7813430A78BD
:100290004FF00F0E12F0FF0F4FF001021CD0046858
:1002A0000F8802FA05F63740B74211D14FEA850CA4
:1002B0000EFA0CF724EA070703FA0CF43C43CF7854
:1002C000282F02D0482F02D002E0466100E00661EC
:1002D0006D1C082DE4D304600C88FF2C1ED94468E3
:1002E0005FF0000606F1080702FA07F50F882F40B5
:1002F000AF420FD14FEA860C0EFA0CF7BC4303FA5B
:100300000CF73C43CF78282F00D14561CF78482F98
:1003100000D10561761C082EE4D34460F0BD0000D6
:10032000F0B5104D6A68440D260184B2C0F3015740
:10033000B440C0F30343032F05D0C0020AD5032005
:100340009840824307E0686822F0706320F0706094
:10035000686002E0A24342F0706301B123436B6026
:10036000F0BD00000000014041617047016170472D
:10037000C1607047044A0029516901D0014300E07F
:10038000814351617047000000100240044A002977
:10039000D16901D0014300E08143D1617047000081
:1003A00000100240044A0029916901D0014300E095
:1003B00081439161704700000010024000290188CC
:1003C00002D041F0400101E021F04001018070477E
:1003D000002A828801D00A4300E08A438280704765
:1003E000090901238B40002A828899B201D00A436F
:1003F00000E08A438280704730B502884C8802F45E
:1004000041530A88CD8822438C882C4322430C898F
:1004100022434C8922438C892243CC8922431A43AC
:100420000280828B22F400628283098A018230BDBD
:1004300070B586B001211C20FFF7B4FF01210846EA
:10044000FFF7B0FF01213948FFF76AFF0121384863
:10045000FFF766FF01213748FFF762FF40F2FB40DC
:10046000ADF800000324344E8DF8024010258DF8BD
:10047000035069463046FFF701FF2802ADF800003F
:100480008DF802408DF8035069463046FFF7F6FEBE
:1004900041F6FF50ADF800008DF802408DF8035092
:1004A00069462648FFF7EAFE4DF6F710ADF8000062
:1004B0008DF802408DF8035069462148FFF7DEFEB3
:1004C00001218803FFF762FF4FF42040ADF80000E0
:1004D0008DF8024028208DF8030069463046FFF76A
:1004E000CDFEA801ADF804000020ADF808000221FF
:1004F000ADF80A100121ADF80C10ADF81000114C48
:10050000ADF80E00ADF81200ADF8060001A92046C6
:10051000FFF772FF012260212046FFF761FF0121F2
:100520002046FFF74BFF06B070BD00000001300011
:100530000002300000043000000C014000100140B7
:1005400000080140003800400CB500212648019108
:100550000091026842F4803202604FF4A0630268A6
:1005600002F400320092019A521C0192009A12B9D0
:10057000019A9A42F3D10268920333D50121009186
:100580001A490A6842F010020A600A6822F003025F
:100590000A600A6842F002020A60416841604168EC
:1005A0004160416841F480614160416821F47C11FF
:1005B0004160416841F4E8114160016841F0807197
:1005C000016001688901FCD5416821F003014160A7
:1005D000416841F0020141604168C1F38101022993
:1005E000FAD10CBD0091FEE700100240002002404D
:1005F0000C48016841F00101016041680A4A11405C
:1006000041600168094A11400160016821F48021BC
:100610000160416821F4FE01416000218160FFF723
:1006200093BF0000001002400000FFF8FFFFF6FE3D
:1006300002E008C8121F08C1002AFAD170477047AB
:10064000002001E001C1121F002AFBD17047000009
:100650002DE9F0430123834086B09DB2414C002731
:1006600002EB81064FEA0D0307EB470106EBC111D0
:10067000214409792940C14023F817107F1CBFB2DB
:100680000C2FF1D3384A4FF000094946A2F80690E2
:1006900002F10A0833F8117018F811C007FA0CF7C4
:1006A000B2F806C0491C47EA0C0789B2D7800C296A
:1006B000F0D3B9B2C943D1805FF00C0101EB41071F
:1006C00006EBC717274403EB410C3F792F40C74087
:1006D000491C89B22CF8187C1429EFD3C846A2F81B
:1006E0000490DFF88490002109F1220933F8117099
:1006F00019F811C007FA0CF7B2F804C0491C47EA10
:100700000C0789B297800829F0D3B9B2C943918008
:100710005FF0140101EB410706EBC717274403EB19
:10072000410C3F792F40C740491C89B22CF8287CE6
:100730002029EFD30C4C0020A2F8088014F13204D9
:1007400033F8101014F81050A9401589401C2943A3
:1007500080B211810C28F3D388B2C043108106B057
:10076000BDE8F0834C0000200000002010B50121FE
:100770008CB00846FFF7FEFD144800901448019025
:10078000002043F20501CDE902010A908021079083
:10079000CDE904010890069048010E4C0990694685
:1007A0002046FFF745FD0948012211460C38FFF7A6
:1007B0000FFE012202212046FFF732FD4FF0E0211B
:1007C0004FF48040C1F800010CB010BD0C3800405F
:1007D0004C00002044000240FFF70AFFFFF728FE0C
:1007E00040F2FF112448FFF7C3FDFF212348FFF724
:1007F000BFFD234CFF212046FFF7BAFD1E20FFF767
:1008000034FD00256D1CE8B2002100F03FF8ADB2C8
:10081000FF2DF7D31B4D00262E70FFF7A7FF1A4FB1
:1008200001213846FFF7E2FC4FF48058414620464C
:10083000FFF79AFD6E80B9462E70A2464FEA080770
:1008400000F082F928780128FAD10124E0B2394673
:1008500000F01CF8641CA4B2602CF7D92E70FFF7CE
:1008600085FF01214846FFF7C1FC39465046FFF796
:100870007BFD2E70E4E700000008014000100140FD
:10088000000C014000000020440002402DE9FC5F04
:100890008046A8484FF6FF74FF274079012600F0F4
:1008A0001F000190DFF890A241EA04008B4600256A
:1008B0000090DFF8889200214846FFF759FD00219B
:1008C0009F48FFF755FD59465046FFF751FD14204C
:1008D000FFF7CBFC37420CD121464846FFF748FDD5
:1008E00021469748FFF744FD50460099FFF740FD29
:1008F0000EE000214846FFF73BFD00219048FFF73E
:1009000037FD59465046FFF733FD1420FFF7ADFC85
:100910007006060E21468948FFF72AFDDFF820926F
:1009200021464846FFF724FD50460099FFF720FD79
:100930001220FFF79AFC6D1CEDB2022DB9D30126EF
:100940007E4F002500213846FFF712FD0021484662
:10095000FFF70EFD59465046FFF70AFD1420FFF73A
:1009600084FC18EA060F0CD121463846FFF700FD3B
:1009700021464846FFF7FCFC50460099FFF7F8FC7B
:100980000EE000213846FFF7F3FC00214846FFF750
:10099000EFFC59465046FFF7EBFC1420FFF765FCCF
:1009A0007006060E21466548FFF7E2FC21464846E0
:1009B000FFF7DEFC50460099FFF7DAFC1220FFF744
:1009C00054FC6D1CEDB2082DBCD3002701263D461A
:1009D00000215A48FFF7CCFC00214846FFF7C8FC2D
:1009E00059465046FFF7C4FC1420FFF73EFC37423F
:1009F0000CD121465148FFF7BBFC21464846FFF782
:100A0000B7FC50460099FFF7B3FC0EE000214B48BD
:100A1000FFF7AEFC00214846FFF7AAFC59465046B6
:100A2000FFF7A6FC1420FFF720FC7006060E2146F7
:100A30004248FFF79DFC21464846FFF799FC504687
:100A40000099FFF795FC1220FFF70FFC6D1C15F0C5
:100A5000FF05BDD0394ED1460225A8F1010ADFF8C5
:100A6000E080002401980AF0FF012044C0B22A4629
:100A7000FFF7EEFD00213046FFF77AFC00214046EB
:100A8000FFF776FC59464846FFF772FC1420FFF743
:100A9000ECFB2C4F3046F988FFF76AFC3989404659
:100AA000FFF766FCB988484641EA0B01FFF760FC96
:100AB0001420FFF7DAFB4FF6FF7739463046FFF791
:100AC00057FC39464046FFF753FC48460099FFF76C
:100AD0004FFC1220FFF7C9FB641CE4B2082CC1D301
:100AE0006D1CEDB2052DBAD31420FFF7BEFB00211B
:100AF0003046FFF73DFC124C00212046FFF738FC42
:100B000059464D464846FFF733FCB420FFF7ADFB8E
:100B100039463046FFF72CFC39462046FFF728FCC3
:100B200028460099FFF724FCBDE8FC5FB420FFF7DE
:100B30009CBB00004C000020000C0140000801405C
:100B400000100140000000202DE9F041124C00216E
:100B50002046FFF70DFC114D00212846FFF708FC49
:100B60000F4E00213046FFF703FCB420FFF77DFB5A
:100B70004FF6FF7739462046FFF7FAFB39462846FD
:100B8000FFF7F6FB39113046FFF7F2FBBDE8F04105
:100B90004FF48C70FFF769BB000801400010014062
:100BA000000C0140C40B0008000000204C000000B5
:100BB00030060008100C00084C000020CC34000067
:100BC00040060008000000000000000000000000D7
:100BD00001000200040005000600070008000B00E9
:100BE0000C000E000F0000000100030004000500CF
:100BF000060007000A0000000100020003000400D4
:100C000005000600070008000A000B000C000000A9
:0400000508000131BD
:00000001FF
