:020000040800F2
:1000000000040020470100085501000857010008BE
:10001000590100085B0100085D01000800000000B4
:100020000000000000000000000000005F01000868
:10003000610100080000000063010008650100087C
:1000400067010008670100086701000867010008F0
:1000500067010008670100086701000867010008E0
:1000600067010008670100086701000867010008D0
:100070006701000867010008BD010008670100086A
:1000800067010008670100086701000867010008B0
:1000900067010008670100086701000867010008A0
:1000A0006701000867010008670100086701000890
:1000B0006701000867010008670100086701000880
:1000C0006701000867010008670100086701000870
:1000D0006701000867010008670100086701000860
:1000E0006701000867010008670100086701000850
:1000F0006701000867010008670100086701000840
:10010000670100086701000867010008670100082F
:10011000670100086701000867010008670100081F
:10012000670100086701000867010008670100080F
:10013000DFF80CD000F030F8004800476D080008E8
:10014000C0330020704708488047084981F3088879
:1001500007480047FEE7FEE7FEE7FEE7FEE7FEE7AB
:10016000FEE7FEE7FEE7FEE745010008C03300209A
:1001700031010008D2B201E000F8012B491EFBD288
:1001800070470022F6E710B513460A4604461946A2
:10019000FFF7F0FF204610BD064C074D06E0E06873
:1001A00040F0010394E8070098471034AC42F6D3BE
:1001B000FFF7C2FF900B0008B00B000810B54FF41A
:1001C0000054204600F02EF801280ED1074948704F
:1001D0000021074800F01CF86110064800F0D8F82C
:1001E0002046BDE8104000F007B810BD0000002018
:1001F00044000240000C0140C10002D502490860E1
:100200007047024948607047040402400000024001
:100210000029016802D041F0010101E021F0010153
:100220000160704701460020CA0001D5034A00E082
:10023000034A12680A4200D00120704700040240BD
:1002400000000240002A026801D00A4300E08A430D
:100250000260704730B5036847F6F07293430C6A4A
:100260008A682243D1E904452C4322438C69224306
:10027000CC6922434C6A22438C6A22431A430260AF
:10028000CA6842600A6882604968C16030BD08B5CA
:1002900000210091814202D200BF491CF9E708BD4C
:1002A000F0B5CA78002502F00F03D20601D58A788E
:1002B00013430A784FF00F0E12F0FF0F4FF00102B8
:1002C0001CD004680F8802FA05F63740B74211D1F6
:1002D0004FEA850C0EFA0CF724EA070703FA0CF430
:1002E0003C43CF78282F02D0482F02D002E046614D
:1002F00000E006616D1C082DE4D304600C88FF2C1F
:100300001ED944685FF0000606F1080702FA07F5F7
:100310000F882F40AF420FD14FEA860C0EFA0CF730
:10032000BC4303FA0CF73C43CF78282F00D145613A
:10033000CF78482F00D10561761C082EE4D34460A5
:10034000F0BD0000F0B5104D6A68440D260184B27E
:10035000C0F30157B440C0F30343032F05D0C002DC
:100360000AD503209840824307E0686822F0706352
:1003700020F07060686002E0A24342F0706301B157
:1003800023436B60F0BD00000000014041617047F5
:1003900001617047044A0029516901D0014300E01E
:1003A000814351617047000000100240044A002957
:1003B000D16901D0014300E08143D1617047000061
:1003C00000100240044A0029916901D0014300E075
:1003D00081439161704700000010024000290188AC
:1003E00002D041F0400101E021F04001018070475E
:1003F000002A828801D00A4300E08A438280704745
:10040000090901238B40002A828899B201D00A434E
:1004100000E08A438280704730B502884C8802F43D
:1004200041530A88CD8822438C882C4322430C896F
:1004300022434C8922438C892243CC8922431A438C
:100440000280828B22F400628283098A018230BD9D
:1004500070B586B001211C20FFF7B4FF01210846CA
:10046000FFF7B0FF01213148FFF76CFF0121304851
:10047000FFF768FF01212F48FFF764FFFF24ADF865
:10048000004003258DF8025010202B4E8DF80300FC
:1004900069463046FFF704FFB014ADF80000694626
:1004A0003046FFF7FDFEADF8004069462348FFF7F0
:1004B000F7FE40F2FF10ADF8000069462048FFF754
:1004C000EFFE01218803FFF771FF4FF42040ADF8E4
:1004D00000008DF8025028208DF803006946304650
:1004E000FFF7DEFE3015ADF804000020ADF808007F
:1004F0000221ADF80A100121ADF80C10ADF8100082
:10050000104CADF80E00ADF81200ADF8060001A9D0
:100510002046FFF781FF012260212046FFF770FF90
:1005200001212046FFF75AFF06B070BD00013000E0
:100530000002300000043000000C014000100140B7
:1005400000080140003800400CB500212648019108
:100550000091026842F4803202604FF4A0630268A6
:1005600002F400320092019A521C0192009A12B9D0
:10057000019A9A42F3D10268920333D50121009186
:100580001A490A6842F010020A600A6822F003025F
:100590000A600A6842F002020A60416841604168EC
:1005A0004160416841F480614160416821F47C11FF
:1005B0004160416841F4E8114160016841F0807197
:1005C000016001688901FCD5416821F003014160A7
:1005D000416841F0020141604168C1F38101022993
:1005E000FAD10CBD0091FEE700100240002002404D
:1005F0000C48016841F00101016041680A4A11405C
:1006000041600168094A11400160016821F48021BC
:100610000160416821F4FE01416000218160FFF723
:1006200093BF0000001002400000FFF8FFFFF6FE3D
:1006300002E008C8121F08C1002AFAD170477047AB
:10064000002001E001C1121F002AFBD17047000009
:100650002DE9F04FDFF89C9101EB410709EB4704CE
:10066000DFF894B134F812308DB063B139F8171057
:10067000ABF80610A1788BF80010A188ABF8041035
:100680000DB0BDE8F08F0123834002EB81069DB2DF
:100690005A4A4FF0000C6B46CCEB0C1106EB4111A3
:1006A000114409792940C14023F81C100CF1010CB8
:1006B0001FFA8CFCBCF1090FEED3BDF80010BDF899
:1006C00002C0BDF8068041EA4C01BDF804C04FEA03
:1006D0008C0C4CEAC80C41EA0C01BDF808C041EA98
:1006E0000C11BDF80AC041EA4C11BDF80CC041EA3A
:1006F0008C11BDF80EC041EACC11BDF810C041EA22
:100700000C21C94389B2ABF806108A465FF0090193
:10071000C1EB011C06EB4C1C944403EB41089CF814
:1007200004C00CEA050C2CFA00FC491C89B228F81C
:1007300012CC1129ECD3BDF80010BDF802C0BDF8F1
:10074000068041EA4C01BDF804C096464FEA8C0C85
:100750004CEAC80C41EA0C01BDF808C041EA0C1192
:10076000BDF80AC041EA4C11BDF80CC041EA8C1139
:10077000BDF80EC041EACC11C94301F0FF088BF867
:1007800000801121C1EB011206EB421C0CEB0E02A2
:1007900003EB410C12792A40C240491C89B22CF863
:1007A000222C1929EED3BDF80000BDF80210BDF8C7
:1007B000062040EA4100BDF80410890041EAC20168
:1007C0000843BDF8081040EA0110BDF80A1040EADD
:1007D0004110BDF80C1040EA8110BDF80E1040EA3F
:1007E000C110C043ABF8040029F817A0A4F8028098
:1007F000A08045E7EE2E0020000000200800002029
:1008000010B501218CB00846FFF7C4FD14480090D4
:1008100014480190002042F6E561CDE902010A90FA
:1008200080210790CDE904010890069088010E4CC4
:10083000099069462046FFF70DFD0948012211463F
:100840000C38FFF7D5FD012202212046FFF7FAFC04
:100850004FF0E0214FF48040C1F800010CB010BD12
:100860000C38004008000020440002404FF434716E
:100870002648FFF786FCFFF7BBFEFFF7E9FD24499A
:1008800040F2FF1008602349FF20C8602249086039
:100890001E20FFF7FCFC0024641CE0B2002100F0E5
:1008A00041F8A4B2FF2CF7D31C4C00256570FFF76C
:1008B000A7FF1B4E01213046FFF7AAFCDFF8588046
:1008C000B714A8F10C0839464046FFF75FFD658074
:1008D0006570B14600F040F960780128FAD1012630
:1008E000F0B2394600F01EF8761CB6B2782EF7D971
:1008F0006570FFF785FF01214846FFF789FC3946FF
:100900004046FFF743FD6570E4E70000EE2E00204F
:100910000C080140001001400C0C014000000020B8
:10092000440002402DE9F34F87B0FF200090854836
:10093000012700264079DFF8109200F01F00DFF851
:100940000CA20C46B34641F0FF050490DFF800828C
:10095000C8F800B0C9F80CB0CAF800401220FFF780
:1009600096FC0098384209D140F2FF10C8F8000008
:10097000FF20C9F80C00CAF8005008E0C8F800B021
:10098000C9F80CB0CAF800401220FFF780FC7806C6
:100990006F49070E40F2FF100860FF20C9F80C00F5
:1009A000CAF800500B20FFF772FC761CF6B2022E3C
:1009B000CCD301270026C846DFF89491C9F800B0CF
:1009C000C8F80CB0CAF800401220FFF760FC079886
:1009D000384209D140F2FF11C9F80010FF21C8F8D0
:1009E0000C10CAF8005008E0C9F800B0C8F80CB004
:1009F000CAF800401220FFF74AFC7806070E40F2C2
:100A0000FF10C9F80000FF20C8F80C00CAF8005019
:100A10000B20FFF73CFC761CF6B2082ECCD300204E
:100A200001270646C1460090DFF82481C8F800B0CF
:100A3000C9F80CB0CAF800401220FFF728FC009853
:100A4000384209D140F2FF11C8F80010FF21C9F85F
:100A50000C10CAF8005008E0C8F800B0C9F80CB093
:100A6000CAF800401220FFF712FC78063849070E3A
:100A700040F2FF100860FF20C9F80C00CAF80050CF
:100A80000B20FFF704FC761C16F0FF06CCD007986D
:100A90000227C846A0F1010BDFF8B490002600BF82
:100AA00004980BF0FF013044C0B23A46FFF7D0FD86
:100AB0000020C9F80000C8F80C00CAF80040122055
:100AC000FFF7E5FB2348C288C9F800200278C8F880
:100AD0000C2080882043CAF800001220FFF7D7FBC3
:100AE00040F2FF10C9F80000FF20C8F80C00CAF857
:100AF00000500B20FFF7CBFB761CF6B2082ECFD3AD
:100B00007F1CFFB2052FC7D31220FFF7C0FBDFF811
:100B100040900020C9F800004646C8F80C0057462F
:100B2000CAF800405A20FFF7B2FB40F2FF10C9F8A4
:100B30000000FF20F0603D6009B05A20BDE8F04F92
:100B4000FFF7A5BB08000020001001400C0C01407D
:100B50000C0801400000002070B50A4C0020206005
:100B6000094DE860094E30605A20FFF790FB40F2D3
:100B7000FF102060FF20E8603060BDE870405A2020
:100B8000FFF785BB0C080140001001400C0C014030
:100B9000B00B00080000002008000000300600082C
:100BA000B80B000808000020B83300004006000819
:080BB00000000000000000003D
:0400000508000131BD
:00000001FF
