:020000040800F2
:1000000000040020470100085501000857010008BE
:10001000590100085B0100085D01000800000000B4
:100020000000000000000000000000005F01000868
:10003000610100080000000063010008650100087C
:1000400067010008670100086701000867010008F0
:1000500067010008670100086701000867010008E0
:1000600067010008670100086701000867010008D0
:10007000670100086701000899010008670100088E
:1000800067010008670100086701000867010008B0
:1000900067010008670100086701000867010008A0
:1000A0006701000867010008670100086701000890
:1000B0006701000867010008670100086701000880
:1000C0006701000867010008670100086701000870
:1000D0006701000867010008670100086701000860
:1000E0006701000867010008670100086701000850
:1000F0006701000867010008670100086701000840
:10010000670100086701000867010008670100082F
:10011000670100086701000867010008670100081F
:10012000670100086701000867010008670100080F
:10013000DFF80CD000F01EF8004800470108000866
:1001400000310020704708488047084981F308883B
:1001500007480047FEE7FEE7FEE7FEE7FEE7FEE7AB
:10016000FEE7FEE7FEE7FEE745010008003100205C
:1001700031010008064C074D06E0E06840F001033D
:1001800094E8070098471034AC42F6D3FFF7D4FF49
:10019000BC0B0008DC0B000810B54FF400542046DF
:1001A00000F02EF801280ED10749487000210748B9
:1001B00000F01CF86110064800F0D8F82046BDE8B1
:1001C000104000F007B810BD0000002044000240BD
:1001D000000C0140C10002D5024908607047024985
:1001E0004860704704040240000002400029016892
:1001F00002D041F0010101E021F0010101607047EE
:1002000001460020CA0001D5034A00E0034A1268F3
:100210000A4200D001207047000402400000024062
:10022000002A026801D00A4300E08A430260704756
:1002300030B5036847F6F07293430C6A8A6822432C
:10024000D1E904452C4322438C692243CC692243E3
:100250004C6A22438C6A22431A430260CA68426095
:100260000A6882604968C16030BD01B5009801E04C
:10027000401E00900028FBD108BD0000F0B5CA78F0
:10028000002502F00F03D20601D58A7813430A78BD
:100290004FF00F0E12F0FF0F4FF001021CD0046858
:1002A0000F8802FA05F63740B74211D14FEA850CA4
:1002B0000EFA0CF724EA070703FA0CF43C43CF7854
:1002C000282F02D0482F02D002E0466100E00661EC
:1002D0006D1C082DE4D304600C88FF2C1ED94468E3
:1002E0005FF0000606F1080702FA07F50F882F40B5
:1002F000AF420FD14FEA860C0EFA0CF7BC4303FA5B
:100300000CF73C43CF78282F00D14561CF78482F98
:1003100000D10561761C082EE4D34460F0BD0000D6
:10032000F0B5104D6A68440D260184B2C0F3015740
:10033000B440C0F30343032F05D0C0020AD5032005
:100340009840824307E0686822F0706320F0706094
:10035000686002E0A24342F0706301B123436B6026
:10036000F0BD00000000014041617047016170472D
:10037000C1607047044A0029516901D0014300E07F
:10038000814351617047000000100240044A002977
:10039000D16901D0014300E08143D1617047000081
:1003A00000100240044A0029916901D0014300E095
:1003B00081439161704700000010024000290188CC
:1003C00002D041F0400101E021F04001018070477E
:1003D000002A828801D00A4300E08A438280704765
:1003E000090901238B40002A828899B201D00A436F
:1003F00000E08A438280704730B502884C8802F45E
:1004000041530A88CD8822438C882C4322430C898F
:1004100022434C8922438C892243CC8922431A43AC
:100420000280828B22F400628283098A018230BDBD
:10043000F0B587B001211C20FFF7B4FF0121084669
:10044000FFF7B0FF01213748FFF76AFF0121364867
:10045000FFF766FF01213548FFF762FFFF26ADF881
:1004600000600324324F8DF8024010258DF80350B0
:1004700069463846FFF702FF2802ADF800008DF804
:1004800002408DF8035069463846FFF7F7FEADF895
:1004900000608DF802408DF8035069462548FFF74B
:1004A000EDFE40F2FF10ADF800008DF802408DF82F
:1004B000035069462048FFF7E1FE01218803FFF75A
:1004C00065FF4FF42040ADF800008DF80240282071
:1004D0008DF8030069463846FFF7D0FEA801ADF855
:1004E00004000020ADF808000221ADF80A10012137
:1004F000ADF80C10ADF81000104CADF80E00ADF8D2
:100500001200ADF8060001A92046FFF775FF012291
:1005100060212046FFF764FF01212046FFF74EFFD0
:1005200007B0F0BD000130000002300000043000D0
:10053000000C01400010014000080140003800405C
:100540000CB50021264801910091026842F48032E6
:1005500002604FF4A063026802F400320092019A34
:10056000521C0192009A12B9019A9A42F3D1026880
:10057000920333D5012100911A490A6842F0100212
:100580000A600A6822F003020A600A6842F0020266
:100590000A604168416041684160416841F480619E
:1005A0004160416821F47C114160416841F4E811E7
:1005B0004160016841F08071016001688901FCD5EA
:1005C000416821F003014160416841F0020141604E
:1005D0004168C1F381010229FAD10CBD0091FEE707
:1005E00000100240002002400C48016841F0010167
:1005F000016041680A4A114041600168094A11409E
:100600000160016821F480210160416821F4FE014C
:10061000416000218160FFF793BF0000001002409D
:100620000000FFF8FFFFF6FE02E008C8121F08C135
:10063000002AFAD170477047002001E001C1121F63
:10064000002AFBD170470000F0B50123834002EB84
:10065000810685B09DB24D4900236C46C3EB031261
:1006600006EB42120A4412792A40C24024F81320B1
:100670005B1C9BB2092BF1D3BDF80020BDF8023002
:10068000BDF8067042EA4302BDF804309B0043EA1D
:10069000C7031A43BDF8083042EA0312BDF80A3016
:1006A00042EA4312BDF80C3042EA8312BDF80E3024
:1006B00042EAC312BDF8103042EA0322344BD2435F
:1006C000DA800922C2EB021706EB47170F4404EB4E
:1006D000420C3F792F40C740521C92B22CF8127C3A
:1006E000112AEFD3BDF80020BDF80270BDF806C096
:1006F00042EA4702BDF80470BF0047EACC073A431C
:10070000BDF8087042EA0712BDF80A7042EA4712C3
:10071000BDF80C7042EA8712BDF80E7042EAC712AB
:10072000D2431A705FF01102C2EB021706EB4717B3
:100730000F4404EB420C3F792F40C740521C92B249
:100740002CF8227C192AEFD3BDF80000BDF8021066
:10075000BDF8062040EA4100BDF80410890041EAD6
:10076000C2010843BDF8081040EA0110BDF80A10A4
:1007700040EA4110BDF80C1040EA8110BDF80E109F
:1007800040EAC110C043988005B0F0BD08000020C9
:100790000000002010B501218CB00846FFF7EAFDEB
:1007A0001448009014480190002042F6E561CDE91C
:1007B00002010A9080210790CDE90401089006907B
:1007C00048010E4C099069462046FFF731FD094863
:1007D000012211460C38FFF7FBFD012202212046C1
:1007E000FFF71EFD4FF0E0214FF48040C1F80001FB
:1007F0000CB010BD0C38004008000020440002403E
:10080000FFF7F2FEFFF714FE40F2FF112448FFF756
:10081000AFFDFF212348FFF7ABFD234CFF2120460E
:10082000FFF7A6FD1E20FFF720FD00256D1CE8B296
:10083000002100F03FF8ADB2FF2DF7D31B4D00268D
:100840006E70FFF7A7FF1A4F01213846FFF7CEFC65
:100850004FF4805841462046FFF786FD6E80B9462A
:100860006E70A2464FEA080700F07CF9687801280C
:10087000FAD10124E0B2394600F01CF8641CA4B29D
:10088000782CF7D96E70FFF785FF01214846FFF7F6
:10089000ADFC39465046FFF767FD6E70E4E7000097
:1008A0000008014000100140000C01400000002041
:1008B000440002402DE9FC5F0446A548FF270126BD
:1008C0004079DFF8909200F01F000190DFF888A2D5
:1008D000DFF8888241F0FF008B4600250090002160
:1008E0004846FFF745FD00215046FFF741FD5946B8
:1008F0004046FFF73DFD2420FFF7B7FC37420DD1FE
:1009000040F2FF114846FFF733FDFF215046FFF745
:100910002FFD40460099FFF72BFD0EE000214846D1
:10092000FFF726FD00215046FFF722FD59464046BD
:10093000FFF71EFD2420FFF798FC7006060E40F21C
:10094000FF114846FFF714FDFF215046FFF710FD49
:1009500040460099FFF70CFD1620FFF786FC6D1C42
:10096000EDB2022DBBD301264F460025C146002122
:100970003846FFF7FDFCDFF8E08100214046FFF735
:10098000F7FC59464846FFF7F3FC2420FFF76DFCBF
:1009900034420DD140F2FF113846FFF7E9FCFF2148
:1009A0004046FFF7E5FC48460099FFF7E1FC0EE002
:1009B00000213846FFF7DCFC00214046FFF7D8FC59
:1009C00059464846FFF7D4FC2420FFF74EFC70063A
:1009D000060E40F2FF113846FFF7CAFCFF214046E1
:1009E000FFF7C6FC48460099FFF7C2FC1620FFF748
:1009F0003CFC6D1CEDB2082DB9D3002701263D4605
:100A0000CA46DFF8508100214046FFF7B1FCDFF80D
:100A1000489100214846FFF7ABFC59465046FFF786
:100A2000A7FC2420FFF721FC37420DD140F2FF1133
:100A30004046FFF79DFCFF214846FFF799FC5046D2
:100A40000099FFF795FC0EE000214046FFF790FC6F
:100A500000214846FFF78CFC59465046FFF788FCBA
:100A60002420FFF702FC7006060E40F2FF114046FC
:100A7000FFF77EFCFF214846FFF77AFC50460099BD
:100A8000FFF776FC1620FFF7F0FB6D1C15F0FF0555
:100A9000B7D04F46D146324E0225A4F1010A0024B8
:100AA00001980AF0FF012044C0B22A46FFF7CCFDAE
:100AB00000214046FFF75CFC00213846FFF758FC58
:100AC00059464846FFF754FC2420FFF7CEFBF18837
:100AD0004046FFF74DFC31783846FFF749FCB188B6
:100AE000484641EA0B01FFF743FC2420FFF7BDFB1A
:100AF00040F2FF114046FFF73BFCFF213846FFF76D
:100B000037FC48460099FFF733FC1620FFF7ADFB92
:100B1000641CE4B2082CC3D36D1CEDB2052DBED30A
:100B20002420FFF7A2FB00214046FFF721FC002113
:100B30003846FFF71DFC59464846FFF719FCB4201C
:100B4000FFF793FBBDE8FC5FAA20FFF78EBB000018
:100B5000080000200008014000100140000C014086
:100B60000000002070B5124C00212046FFF700FC69
:100B7000104D00212846FFF7FBFB0F4E00213046A9
:100B8000FFF7F6FBB420FFF770FB40F2FF112046A1
:100B9000FFF7EEFBFF212846FFF7EAFBFF21304677
:100BA000FFF7E6FBBDE870404FF48C70FFF75DBBCC
:100BB0000008014000100140000C0140DC0B00085F
:100BC000000000200800000028060008E40B0008D0
:100BD00008000020F830000038060008000000007F
:040BE0000000000011
:0400000508000131BD
:00000001FF
